{
    "contractName": "IdentityVerification",
    "abi": [
        {
            "inputs": [],
            "stateMutability": "nonpayable",
            "type": "constructor"
        },
        {
            "anonymous": false,
            "inputs": [
                {
                    "indexed": true,
                    "internalType": "address",
                    "name": "user",
                    "type": "address"
                },
                {
                    "indexed": false,
                    "internalType": "string",
                    "name": "documentType",
                    "type": "string"
                },
                {
                    "indexed": false,
                    "internalType": "string",
                    "name": "documentHash",
                    "type": "string"
                }
            ],
            "name": "DocumentUploaded",
            "type": "event"
        },
        {
            "anonymous": false,
            "inputs": [
                {
                    "indexed": true,
                    "internalType": "address",
                    "name": "user",
                    "type": "address"
                },
                {
                    "indexed": true,
                    "internalType": "address",
                    "name": "verifier",
                    "type": "address"
                },
                {
                    "indexed": false,
                    "internalType": "uint256",
                    "name": "docIndex",
                    "type": "uint256"
                },
                {
                    "indexed": false,
                    "internalType": "string",
                    "name": "status",
                    "type": "string"
                }
            ],
            "name": "DocumentVerified",
            "type": "event"
        },
        {
            "anonymous": false,
            "inputs": [
                {
                    "indexed": true,
                    "internalType": "address",
                    "name": "verifier",
                    "type": "address"
                }
            ],
            "name": "VerifierAdded",
            "type": "event"
        },
        {
            "anonymous": false,
            "inputs": [
                {
                    "indexed": true,
                    "internalType": "address",
                    "name": "verifier",
                    "type": "address"
                }
            ],
            "name": "VerifierRemoved",
            "type": "event"
        },
        {
            "inputs": [],
            "name": "owner",
            "outputs": [
                {
                    "internalType": "address",
                    "name": "",
                    "type": "address"
                }
            ],
            "stateMutability": "view",
            "type": "function",
            "constant": true
        },
        {
            "inputs": [
                {
                    "internalType": "address",
                    "name": "",
                    "type": "address"
                },
                {
                    "internalType": "uint256",
                    "name": "",
                    "type": "uint256"
                }
            ],
            "name": "userDocuments",
            "outputs": [
                {
                    "internalType": "string",
                    "name": "documentHash",
                    "type": "string"
                },
                {
                    "internalType": "string",
                    "name": "documentType",
                    "type": "string"
                },
                {
                    "internalType": "string",
                    "name": "status",
                    "type": "string"
                },
                {
                    "internalType": "uint256",
                    "name": "timestamp",
                    "type": "uint256"
                },
                {
                    "internalType": "address",
                    "name": "verifier",
                    "type": "address"
                },
                {
                    "internalType": "string",
                    "name": "notes",
                    "type": "string"
                }
            ],
            "stateMutability": "view",
            "type": "function",
            "constant": true
        },
        {
            "inputs": [
                {
                    "internalType": "address",
                    "name": "",
                    "type": "address"
                }
            ],
            "name": "verifiers",
            "outputs": [
                {
                    "internalType": "bool",
                    "name": "",
                    "type": "bool"
                }
            ],
            "stateMutability": "view",
            "type": "function",
            "constant": true
        },
        {
            "inputs": [
                {
                    "internalType": "address",
                    "name": "_verifier",
                    "type": "address"
                }
            ],
            "name": "addVerifier",
            "outputs": [],
            "stateMutability": "nonpayable",
            "type": "function"
        },
        {
            "inputs": [
                {
                    "internalType": "address",
                    "name": "_verifier",
                    "type": "address"
                }
            ],
            "name": "removeVerifier",
            "outputs": [],
            "stateMutability": "nonpayable",
            "type": "function"
        },
        {
            "inputs": [
                {
                    "internalType": "string",
                    "name": "_documentHash",
                    "type": "string"
                },
                {
                    "internalType": "string",
                    "name": "_documentType",
                    "type": "string"
                }
            ],
            "name": "uploadDocument",
            "outputs": [],
            "stateMutability": "nonpayable",
            "type": "function"
        },
        {
            "inputs": [
                {
                    "internalType": "address",
                    "name": "_user",
                    "type": "address"
                },
                {
                    "internalType": "uint256",
                    "name": "_docIndex",
                    "type": "uint256"
                },
                {
                    "internalType": "string",
                    "name": "_status",
                    "type": "string"
                },
                {
                    "internalType": "string",
                    "name": "_notes",
                    "type": "string"
                }
            ],
            "name": "verifyDocument",
            "outputs": [],
            "stateMutability": "nonpayable",
            "type": "function"
        },
        {
            "inputs": [
                {
                    "internalType": "address",
                    "name": "_user",
                    "type": "address"
                }
            ],
            "name": "getDocumentCount",
            "outputs": [
                {
                    "internalType": "uint256",
                    "name": "",
                    "type": "uint256"
                }
            ],
            "stateMutability": "view",
            "type": "function",
            "constant": true
        },
        {
            "inputs": [
                {
                    "internalType": "address",
                    "name": "_user",
                    "type": "address"
                },
                {
                    "internalType": "uint256",
                    "name": "_index",
                    "type": "uint256"
                }
            ],
            "name": "getDocument",
            "outputs": [
                {
                    "internalType": "string",
                    "name": "documentHash",
                    "type": "string"
                },
                {
                    "internalType": "string",
                    "name": "documentType",
                    "type": "string"
                },
                {
                    "internalType": "string",
                    "name": "status",
                    "type": "string"
                },
                {
                    "internalType": "uint256",
                    "name": "timestamp",
                    "type": "uint256"
                },
                {
                    "internalType": "address",
                    "name": "verifier",
                    "type": "address"
                },
                {
                    "internalType": "string",
                    "name": "notes",
                    "type": "string"
                }
            ],
            "stateMutability": "view",
            "type": "function",
            "constant": true
        },
        {
            "inputs": [
                {
                    "internalType": "address",
                    "name": "_addr",
                    "type": "address"
                }
            ],
            "name": "isVerifier",
            "outputs": [
                {
                    "internalType": "bool",
                    "name": "",
                    "type": "bool"
                }
            ],
            "stateMutability": "view",
            "type": "function",
            "constant": true
        }
    ],
    "bytecode": "0x608060405234801561001057600080fd5b5033600260006101000a81548173ffffffffffffffffffffffffffffffffffffffff021916908373ffffffffffffffffffffffffffffffffffffffff1602179055506119e2806100616000396000f3fe608060405234801561001057600080fd5b506004361061009e5760003560e01c80638da5cb5b116100665780638da5cb5b146101845780639000b3d6146101a25780639d2a11ab146101be578063ca2dfd0a146101da578063cee4f70b146101f65761009e565b806333105218146100a35780633b993fe0146100d35780634464fe3314610103578063577a1b921461011f5780636c82448714610154575b600080fd5b6100bd60048036038101906100b89190611022565b61022b565b6040516100ca919061106a565b60405180910390f35b6100ed60048036038101906100e89190611022565b610281565b6040516100fa919061109e565b60405180910390f35b61011d600480360381019061011891906111ff565b6102cc565b005b610139600480360381019061013491906112a3565b6104c0565b60405161014b96959493929190611371565b60405180910390f35b61016e60048036038101906101699190611022565b610759565b60405161017b919061106a565b60405180910390f35b61018c610779565b60405161019991906113ee565b60405180910390f35b6101bc60048036038101906101b79190611022565b61079f565b005b6101d860048036038101906101d39190611409565b6108cc565b005b6101f460048036038101906101ef9190611022565b610b12565b005b610210600480360381019061020b91906112a3565b610c40565b60405161022296959493929190611371565b60405180910390f35b6000600160008373ffffffffffffffffffffffffffffffffffffffff1673ffffffffffffffffffffffffffffffffffffffff16815260200190815260200160002060009054906101000a900460ff169050919050565b60008060008373ffffffffffffffffffffffffffffffffffffffff1673ffffffffffffffffffffffffffffffffffffffff168152602001908152602001600020805490509050919050565b60006040518060c001604052808481526020018381526020016040518060400160405280600781526020017f50656e64696e67000000000000000000000000000000000000000000000000008152508152602001428152602001600073ffffffffffffffffffffffffffffffffffffffff1681526020016040518060200160405280600081525081525090506000803373ffffffffffffffffffffffffffffffffffffffff1673ffffffffffffffffffffffffffffffffffffffff16815260200190815260200160002081908060018154018082558091505060019003906000526020600020906006020160009091909190915060008201518160000190816103d591906116b4565b5060208201518160010190816103eb91906116b4565b50604082015181600201908161040191906116b4565b506060820151816003015560808201518160040160006101000a81548173ffffffffffffffffffffffffffffffffffffffff021916908373ffffffffffffffffffffffffffffffffffffffff16021790555060a082015181600501908161046891906116b4565b5050503373ffffffffffffffffffffffffffffffffffffffff167f63630f357f7a0fe7466b2c369dab72c6b5e951f8e9c0de24fa8f4ee1d10c62d983856040516104b3929190611786565b60405180910390a2505050565b600060205281600052604060002081815481106104dc57600080fd5b906000526020600020906006020160009150915050806000018054610500906114d7565b80601f016020809104026020016040519081016040528092919081815260200182805461052c906114d7565b80156105795780601f1061054e57610100808354040283529160200191610579565b820191906000526020600020905b81548152906001019060200180831161055c57829003601f168201915b50505050509080600101805461058e906114d7565b80601f01602080910402602001604051908101604052809291908181526020018280546105ba906114d7565b80156106075780601f106105dc57610100808354040283529160200191610607565b820191906000526020600020905b8154815290600101906020018083116105ea57829003601f168201915b50505050509080600201805461061c906114d7565b80601f0160208091040260200160405190810160405280929190818152602001828054610648906114d7565b80156106955780601f1061066a57610100808354040283529160200191610695565b820191906000526020600020905b81548152906001019060200180831161067857829003601f168201915b5050505050908060030154908060040160009054906101000a900473ffffffffffffffffffffffffffffffffffffffff16908060050180546106d6906114d7565b80601f0160208091040260200160405190810160405280929190818152602001828054610702906114d7565b801561074f5780601f106107245761010080835404028352916020019161074f565b820191906000526020600020905b81548152906001019060200180831161073257829003601f168201915b5050505050905086565b60016020528060005260406000206000915054906101000a900460ff1681565b600260009054906101000a900473ffffffffffffffffffffffffffffffffffffffff1681565b600260009054906101000a900473ffffffffffffffffffffffffffffffffffffffff1673ffffffffffffffffffffffffffffffffffffffff163373ffffffffffffffffffffffffffffffffffffffff161461082f576040517f08c379a00000000000000000000000000000000000000000000000000000000081526004016108269061182f565b60405180910390fd5b60018060008373ffffffffffffffffffffffffffffffffffffffff1673ffffffffffffffffffffffffffffffffffffffff16815260200190815260200160002060006101000a81548160ff0219169083151502179055508073ffffffffffffffffffffffffffffffffffffffff167f6d05492139c5ea989514a5d2150c028041e5c087e2a39967f67dc7d2655adb8160405160405180910390a250565b600160003373ffffffffffffffffffffffffffffffffffffffff1673ffffffffffffffffffffffffffffffffffffffff16815260200190815260200160002060009054906101000a900460ff16610958576040517f08c379a000000000000000000000000000000000000000000000000000000000815260040161094f906118c1565b60405180910390fd5b6000808573ffffffffffffffffffffffffffffffffffffffff1673ffffffffffffffffffffffffffffffffffffffff1681526020019081526020016000208054905083106109db576040517f08c379a00000000000000000000000000000000000000000000000000000000081526004016109d29061192d565b60405180910390fd5b60008060008673ffffffffffffffffffffffffffffffffffffffff1673ffffffffffffffffffffffffffffffffffffffff1681526020019081526020016000208481548110610a2d57610a2c61194d565b5b9060005260206000209060060201905082816002019081610a4e91906116b4565b50338160040160006101000a81548173ffffffffffffffffffffffffffffffffffffffff021916908373ffffffffffffffffffffffffffffffffffffffff16021790555081816005019081610aa391906116b4565b503373ffffffffffffffffffffffffffffffffffffffff168573ffffffffffffffffffffffffffffffffffffffff167f77ca616ab2516f4e39fd9de33f1cedb6fbd22ba9bdaf7024fa8d39dbd5abfb4b8686604051610b0392919061197c565b60405180910390a35050505050565b600260009054906101000a900473ffffffffffffffffffffffffffffffffffffffff1673ffffffffffffffffffffffffffffffffffffffff163373ffffffffffffffffffffffffffffffffffffffff1614610ba2576040517f08c379a0000000000000000000000000000000000000000000000000000000008152600401610b999061182f565b60405180910390fd5b6000600160008373ffffffffffffffffffffffffffffffffffffffff1673ffffffffffffffffffffffffffffffffffffffff16815260200190815260200160002060006101000a81548160ff0219169083151502179055508073ffffffffffffffffffffffffffffffffffffffff167f44a3cd4eb5cc5748f6169df057b1cb2ae4c383e87cd94663c430e095d4cba42460405160405180910390a250565b606080606060008060606000808973ffffffffffffffffffffffffffffffffffffffff1673ffffffffffffffffffffffffffffffffffffffff168152602001908152602001600020805490508710610ccd576040517f08c379a0000000000000000000000000000000000000000000000000000000008152600401610cc49061192d565b60405180910390fd5b60008060008a73ffffffffffffffffffffffffffffffffffffffff1673ffffffffffffffffffffffffffffffffffffffff1681526020019081526020016000208881548110610d1f57610d1e61194d565b5b9060005260206000209060060201905080600001816001018260020183600301548460040160009054906101000a900473ffffffffffffffffffffffffffffffffffffffff1685600501858054610d75906114d7565b80601f0160208091040260200160405190810160405280929190818152602001828054610da1906114d7565b8015610dee5780601f10610dc357610100808354040283529160200191610dee565b820191906000526020600020905b815481529060010190602001808311610dd157829003601f168201915b50505050509550848054610e01906114d7565b80601f0160208091040260200160405190810160405280929190818152602001828054610e2d906114d7565b8015610e7a5780601f10610e4f57610100808354040283529160200191610e7a565b820191906000526020600020905b815481529060010190602001808311610e5d57829003601f168201915b50505050509450838054610e8d906114d7565b80601f0160208091040260200160405190810160405280929190818152602001828054610eb9906114d7565b8015610f065780601f10610edb57610100808354040283529160200191610f06565b820191906000526020600020905b815481529060010190602001808311610ee957829003601f168201915b50505050509350808054610f19906114d7565b80601f0160208091040260200160405190810160405280929190818152602001828054610f45906114d7565b8015610f925780601f10610f6757610100808354040283529160200191610f92565b820191906000526020600020905b815481529060010190602001808311610f7557829003601f168201915b50505050509050965096509650965096509650509295509295509295565b6000604051905090565b600080fd5b600080fd5b600073ffffffffffffffffffffffffffffffffffffffff82169050919050565b6000610fef82610fc4565b9050919050565b610fff81610fe4565b811461100a57600080fd5b50565b60008135905061101c81610ff6565b92915050565b60006020828403121561103857611037610fba565b5b60006110468482850161100d565b91505092915050565b60008115159050919050565b6110648161104f565b82525050565b600060208201905061107f600083018461105b565b92915050565b6000819050919050565b61109881611085565b82525050565b60006020820190506110b3600083018461108f565b92915050565b600080fd5b600080fd5b6000601f19601f8301169050919050565b7f4e487b7100000000000000000000000000000000000000000000000000000000600052604160045260246000fd5b61110c826110c3565b810181811067ffffffffffffffff8211171561112b5761112a6110d4565b5b80604052505050565b600061113e610fb0565b905061114a8282611103565b919050565b600067ffffffffffffffff82111561116a576111696110d4565b5b611173826110c3565b9050602081019050919050565b82818337600083830152505050565b60006111a261119d8461114f565b611134565b9050828152602081018484840111156111be576111bd6110be565b5b6111c9848285611180565b509392505050565b600082601f8301126111e6576111e56110b9565b5b81356111f684826020860161118f565b91505092915050565b6000806040838503121561121657611215610fba565b5b600083013567ffffffffffffffff81111561123457611233610fbf565b5b611240858286016111d1565b925050602083013567ffffffffffffffff81111561126157611260610fbf565b5b61126d858286016111d1565b9150509250929050565b61128081611085565b811461128b57600080fd5b50565b60008135905061129d81611277565b92915050565b600080604083850312156112ba576112b9610fba565b5b60006112c88582860161100d565b92505060206112d98582860161128e565b9150509250929050565b600081519050919050565b600082825260208201905092915050565b60005b8381101561131d578082015181840152602081019050611302565b60008484015250505050565b6000611334826112e3565b61133e81856112ee565b935061134e8185602086016112ff565b611357816110c3565b840191505092915050565b61136b81610fe4565b82525050565b600060c082019050818103600083015261138b8189611329565b9050818103602083015261139f8188611329565b905081810360408301526113b38187611329565b90506113c2606083018661108f565b6113cf6080830185611362565b81810360a08301526113e18184611329565b9050979650505050505050565b60006020820190506114036000830184611362565b92915050565b6000806000806080858703121561142357611422610fba565b5b60006114318782880161100d565b94505060206114428782880161128e565b935050604085013567ffffffffffffffff81111561146357611462610fbf565b5b61146f878288016111d1565b925050606085013567ffffffffffffffff8111156114905761148f610fbf565b5b61149c878288016111d1565b91505092959194509250565b7f4e487b7100000000000000000000000000000000000000000000000000000000600052602260045260246000fd5b600060028204905060018216806114ef57607f821691505b602082108103611502576115016114a8565b5b50919050565b60008190508160005260206000209050919050565b60006020601f8301049050919050565b600082821b905092915050565b60006008830261156a7fffffffffffffffffffffffffffffffffffffffffffffffffffffffffffffffff8261152d565b611574868361152d565b95508019841693508086168417925050509392505050565b6000819050919050565b60006115b16115ac6115a784611085565b61158c565b611085565b9050919050565b6000819050919050565b6115cb83611596565b6115df6115d7826115b8565b84845461153a565b825550505050565b600090565b6115f46115e7565b6115ff8184846115c2565b505050565b5b81811015611623576116186000826115ec565b600181019050611605565b5050565b601f8211156116685761163981611508565b6116428461151d565b81016020851015611651578190505b61166561165d8561151d565b830182611604565b50505b505050565b600082821c905092915050565b600061168b6000198460080261166d565b1980831691505092915050565b60006116a4838361167a565b9150826002028217905092915050565b6116bd826112e3565b67ffffffffffffffff8111156116d6576116d56110d4565b5b6116e082546114d7565b6116eb828285611627565b600060209050601f83116001811461171e576000841561170c578287015190505b6117168582611698565b86555061177e565b601f19841661172c86611508565b60005b828110156117545784890151825560018201915060208501945060208101905061172f565b86831015611771578489015161176d601f89168261167a565b8355505b6001600288020188555050505b505050505050565b600060408201905081810360008301526117a08185611329565b905081810360208301526117b48184611329565b90509392505050565b7f4f6e6c79206f776e65722063616e2063616c6c20746869732066756e6374696f60008201527f6e00000000000000000000000000000000000000000000000000000000000000602082015250565b60006118196021836112ee565b9150611824826117bd565b604082019050919050565b600060208201905081810360008301526118488161180c565b9050919050565b7f4f6e6c7920617574686f72697a6564207665726966696572732063616e20636160008201527f6c6c20746869732066756e6374696f6e00000000000000000000000000000000602082015250565b60006118ab6030836112ee565b91506118b68261184f565b604082019050919050565b600060208201905081810360008301526118da8161189e565b9050919050565b7f446f63756d656e7420646f6573206e6f74206578697374000000000000000000600082015250565b60006119176017836112ee565b9150611922826118e1565b602082019050919050565b600060208201905081810360008301526119468161190a565b9050919050565b7f4e487b7100000000000000000000000000000000000000000000000000000000600052603260045260246000fd5b6000604082019050611991600083018561108f565b81810360208301526119a38184611329565b9050939250505056fea2646970667358221220ae822a1c9d0e42e63b275f7ab1caba9bc8c60d97aa45c67c8c0bdf7017b6cb7864736f6c63430008110033",
    "immutableReferences": {},
    "source": "// SPDX-License-Identifier: MIT\r\npragma solidity ^0.8.0;\r\n\r\ncontract IdentityVerification {\r\n    struct Document {\r\n        string documentHash;  // IPFS hash of the document\r\n        string documentType;  // Type of document (passport, ID, etc.)\r\n        string status;        // \"Pending\", \"Verified\", or \"Rejected\"\r\n        uint256 timestamp;    // When the document was uploaded\r\n        address verifier;     // Address of the institution that verified it\r\n        string notes;         // Optional verification notes\r\n    }\r\n    \r\n    // Map user addresses to their documents\r\n    mapping(address => Document[]) public userDocuments;\r\n    \r\n    // Map institution addresses to their verification rights\r\n    mapping(address => bool) public verifiers;\r\n    \r\n    // Contract owner\r\n    address public owner;\r\n    \r\n    // Events for tracking actions\r\n    event DocumentUploaded(address indexed user, string documentType, string documentHash);\r\n    event DocumentVerified(address indexed user, address indexed verifier, uint docIndex, string status);\r\n    event VerifierAdded(address indexed verifier);\r\n    event VerifierRemoved(address indexed verifier);\r\n    \r\n    constructor() {\r\n        owner = msg.sender;\r\n    }\r\n    \r\n    // Only owner can call this function\r\n    modifier onlyOwner() {\r\n        require(msg.sender == owner, \"Only owner can call this function\");\r\n        _;\r\n    }\r\n    \r\n    // Only verified institutions can call this function\r\n    modifier onlyVerifier() {\r\n        require(verifiers[msg.sender], \"Only authorized verifiers can call this function\");\r\n        _;\r\n    }\r\n    \r\n    // Add a new institution that can verify documents\r\n    function addVerifier(address _verifier) public onlyOwner {\r\n        verifiers[_verifier] = true;\r\n        emit VerifierAdded(_verifier);\r\n    }\r\n    \r\n    // Remove a verifier\r\n    function removeVerifier(address _verifier) public onlyOwner {\r\n        verifiers[_verifier] = false;\r\n        emit VerifierRemoved(_verifier);\r\n    }\r\n    \r\n    // Upload a document for verification\r\n    function uploadDocument(string memory _documentHash, string memory _documentType) public {\r\n        Document memory newDoc = Document({\r\n            documentHash: _documentHash,\r\n            documentType: _documentType,\r\n            status: \"Pending\",\r\n            timestamp: block.timestamp,\r\n            verifier: address(0),\r\n            notes: \"\"\r\n        });\r\n        \r\n        userDocuments[msg.sender].push(newDoc);\r\n        emit DocumentUploaded(msg.sender, _documentType, _documentHash);\r\n    }\r\n    \r\n    // Verify a document\r\n    function verifyDocument(address _user, uint _docIndex, string memory _status, string memory _notes) public onlyVerifier {\r\n        require(_docIndex < userDocuments[_user].length, \"Document does not exist\");\r\n        \r\n        Document storage doc = userDocuments[_user][_docIndex];\r\n        doc.status = _status;\r\n        doc.verifier = msg.sender;\r\n        doc.notes = _notes;\r\n        \r\n        emit DocumentVerified(_user, msg.sender, _docIndex, _status);\r\n    }\r\n    \r\n    // Get the number of documents for a user\r\n    function getDocumentCount(address _user) public view returns (uint) {\r\n        return userDocuments[_user].length;\r\n    }\r\n    \r\n    // Get a document's details\r\n    function getDocument(address _user, uint _index) public view returns (\r\n        string memory documentHash,\r\n        string memory documentType,\r\n        string memory status,\r\n        uint256 timestamp,\r\n        address verifier,\r\n        string memory notes\r\n    ) {\r\n        require(_index < userDocuments[_user].length, \"Document does not exist\");\r\n        \r\n        Document storage doc = userDocuments[_user][_index];\r\n        return (\r\n            doc.documentHash,\r\n            doc.documentType,\r\n            doc.status,\r\n            doc.timestamp,\r\n            doc.verifier,\r\n            doc.notes\r\n        );\r\n    }\r\n    \r\n    // Check if an address is a verifier\r\n    function isVerifier(address _addr) public view returns (bool) {\r\n        return verifiers[_addr];\r\n    }\r\n}",
    "sourcePath": "C:\\Users\\Tobij\\VeriMask\\backend\\ekyc-blockchain\\contracts\\IdentityVerification.sol",
    "compiler": {
        "name": "solc",
        "version": "0.8.17+commit.8df45f5f.Emscripten.clang"
    },
    "schemaVersion": "3.4.16",
    "updatedAt": "2025-03-04T19:31:37.207Z",
    "networkType": "ethereum",
    "devdoc": {
        "kind": "dev",
        "methods": {},
        "version": 1
    },
    "userdoc": {
        "kind": "user",
        "methods": {},
        "version": 1
    }
}